{
  "contractName": "Avatheeers",
  "abi": [
    {
      "anonymous": false,
      "inputs": [
        {
          "indexed": true,
          "internalType": "address",
          "name": "owner",
          "type": "address"
        },
        {
          "indexed": true,
          "internalType": "address",
          "name": "approved",
          "type": "address"
        },
        {
          "indexed": true,
          "internalType": "uint256",
          "name": "tokenId",
          "type": "uint256"
        }
      ],
      "name": "Approval",
      "type": "event"
    },
    {
      "anonymous": false,
      "inputs": [
        {
          "indexed": true,
          "internalType": "address",
          "name": "owner",
          "type": "address"
        },
        {
          "indexed": true,
          "internalType": "address",
          "name": "operator",
          "type": "address"
        },
        {
          "indexed": false,
          "internalType": "bool",
          "name": "approved",
          "type": "bool"
        }
      ],
      "name": "ApprovalForAll",
      "type": "event"
    },
    {
      "anonymous": false,
      "inputs": [
        {
          "indexed": true,
          "internalType": "address",
          "name": "from",
          "type": "address"
        },
        {
          "indexed": true,
          "internalType": "address",
          "name": "to",
          "type": "address"
        },
        {
          "indexed": true,
          "internalType": "uint256",
          "name": "tokenId",
          "type": "uint256"
        }
      ],
      "name": "Transfer",
      "type": "event"
    },
    {
      "inputs": [
        {
          "internalType": "uint256",
          "name": "",
          "type": "uint256"
        }
      ],
      "name": "avatheeerToOwner",
      "outputs": [
        {
          "internalType": "address",
          "name": "",
          "type": "address"
        }
      ],
      "stateMutability": "view",
      "type": "function",
      "constant": true
    },
    {
      "inputs": [
        {
          "internalType": "uint256",
          "name": "",
          "type": "uint256"
        }
      ],
      "name": "avatheeers",
      "outputs": [
        {
          "internalType": "string",
          "name": "name",
          "type": "string"
        },
        {
          "internalType": "uint256",
          "name": "dna",
          "type": "uint256"
        }
      ],
      "stateMutability": "view",
      "type": "function",
      "constant": true
    },
    {
      "inputs": [
        {
          "internalType": "uint256",
          "name": "",
          "type": "uint256"
        }
      ],
      "name": "dnaAvatheeerExists",
      "outputs": [
        {
          "internalType": "bool",
          "name": "",
          "type": "bool"
        }
      ],
      "stateMutability": "view",
      "type": "function",
      "constant": true
    },
    {
      "inputs": [
        {
          "internalType": "address",
          "name": "",
          "type": "address"
        }
      ],
      "name": "ownerAvatheeerCount",
      "outputs": [
        {
          "internalType": "uint256",
          "name": "",
          "type": "uint256"
        }
      ],
      "stateMutability": "view",
      "type": "function",
      "constant": true
    },
    {
      "inputs": [
        {
          "internalType": "bytes4",
          "name": "interfaceId",
          "type": "bytes4"
        }
      ],
      "name": "supportsInterface",
      "outputs": [
        {
          "internalType": "bool",
          "name": "",
          "type": "bool"
        }
      ],
      "stateMutability": "view",
      "type": "function",
      "constant": true
    },
    {
      "inputs": [
        {
          "internalType": "string",
          "name": "_name",
          "type": "string"
        }
      ],
      "name": "createRandomAvatheeer",
      "outputs": [],
      "stateMutability": "nonpayable",
      "type": "function"
    },
    {
      "inputs": [
        {
          "internalType": "string",
          "name": "_str",
          "type": "string"
        },
        {
          "internalType": "address",
          "name": "_owner",
          "type": "address"
        }
      ],
      "name": "generateRandomDna",
      "outputs": [
        {
          "internalType": "uint256",
          "name": "",
          "type": "uint256"
        }
      ],
      "stateMutability": "pure",
      "type": "function",
      "constant": true
    },
    {
      "inputs": [
        {
          "internalType": "address",
          "name": "_owner",
          "type": "address"
        }
      ],
      "name": "getAvatheeersByOwner",
      "outputs": [
        {
          "internalType": "uint256[]",
          "name": "",
          "type": "uint256[]"
        }
      ],
      "stateMutability": "view",
      "type": "function",
      "constant": true
    },
    {
      "inputs": [
        {
          "internalType": "address",
          "name": "_owner",
          "type": "address"
        }
      ],
      "name": "balanceOf",
      "outputs": [
        {
          "internalType": "uint256",
          "name": "_balance",
          "type": "uint256"
        }
      ],
      "stateMutability": "view",
      "type": "function",
      "constant": true
    },
    {
      "inputs": [
        {
          "internalType": "uint256",
          "name": "_avatheeerId",
          "type": "uint256"
        }
      ],
      "name": "ownerOf",
      "outputs": [
        {
          "internalType": "address",
          "name": "_owner",
          "type": "address"
        }
      ],
      "stateMutability": "view",
      "type": "function",
      "constant": true
    },
    {
      "inputs": [
        {
          "internalType": "address",
          "name": "_from",
          "type": "address"
        },
        {
          "internalType": "address",
          "name": "_to",
          "type": "address"
        },
        {
          "internalType": "uint256",
          "name": "_avatheeerId",
          "type": "uint256"
        }
      ],
      "name": "transferFrom",
      "outputs": [],
      "stateMutability": "nonpayable",
      "type": "function"
    },
    {
      "inputs": [
        {
          "internalType": "address",
          "name": "_to",
          "type": "address"
        },
        {
          "internalType": "uint256",
          "name": "_avatheeerId",
          "type": "uint256"
        }
      ],
      "name": "approve",
      "outputs": [],
      "stateMutability": "nonpayable",
      "type": "function"
    },
    {
      "inputs": [
        {
          "internalType": "uint256",
          "name": "_avatheeerId",
          "type": "uint256"
        }
      ],
      "name": "getApproved",
      "outputs": [
        {
          "internalType": "address",
          "name": "operator",
          "type": "address"
        }
      ],
      "stateMutability": "view",
      "type": "function",
      "constant": true
    },
    {
      "inputs": [
        {
          "internalType": "address",
          "name": "to",
          "type": "address"
        },
        {
          "internalType": "bool",
          "name": "approved",
          "type": "bool"
        }
      ],
      "name": "setApprovalForAll",
      "outputs": [],
      "stateMutability": "nonpayable",
      "type": "function"
    },
    {
      "inputs": [
        {
          "internalType": "address",
          "name": "owner",
          "type": "address"
        },
        {
          "internalType": "address",
          "name": "operator",
          "type": "address"
        }
      ],
      "name": "isApprovedForAll",
      "outputs": [
        {
          "internalType": "bool",
          "name": "",
          "type": "bool"
        }
      ],
      "stateMutability": "view",
      "type": "function",
      "constant": true
    },
    {
      "inputs": [
        {
          "internalType": "address",
          "name": "from",
          "type": "address"
        },
        {
          "internalType": "address",
          "name": "to",
          "type": "address"
        },
        {
          "internalType": "uint256",
          "name": "avatheeerId",
          "type": "uint256"
        }
      ],
      "name": "safeTransferFrom",
      "outputs": [],
      "stateMutability": "nonpayable",
      "type": "function"
    },
    {
      "inputs": [
        {
          "internalType": "address",
          "name": "from",
          "type": "address"
        },
        {
          "internalType": "address",
          "name": "to",
          "type": "address"
        },
        {
          "internalType": "uint256",
          "name": "avatheeerId",
          "type": "uint256"
        },
        {
          "internalType": "bytes",
          "name": "_data",
          "type": "bytes"
        }
      ],
      "name": "safeTransferFrom",
      "outputs": [],
      "stateMutability": "nonpayable",
      "type": "function"
    },
    {
      "inputs": [
        {
          "internalType": "uint256",
          "name": "_avatheeerId",
          "type": "uint256"
        }
      ],
      "name": "burn",
      "outputs": [],
      "stateMutability": "nonpayable",
      "type": "function"
    },
    {
      "inputs": [
        {
          "internalType": "uint256",
          "name": "_avatheeerId",
          "type": "uint256"
        }
      ],
      "name": "takeOwnership",
      "outputs": [],
      "stateMutability": "nonpayable",
      "type": "function"
    }
  ],
  "bytecode": "0x608060405261001a6301ffc9a760e01b61001f60201b60201c565b610127565b63ffffffff60e01b817bffffffffffffffffffffffffffffffffffffffffffffffffffffffff191614156100bb576040517f08c379a000000000000000000000000000000000000000000000000000000000815260040180806020018281038252601c8152602001807f4552433136353a20696e76616c696420696e746572666163652069640000000081525060200191505060405180910390fd5b6001600080837bffffffffffffffffffffffffffffffffffffffffffffffffffffffff19167bffffffffffffffffffffffffffffffffffffffffffffffffffffffff1916815260200190815260200160002060006101000a81548160ff02191690831515021790555050565b612715806101366000396000f3fe608060405234801561001057600080fd5b50600436106101215760003560e01c8063563065ea116100ad578063b2e6ceeb11610071578063b2e6ceeb14610710578063b88d4fde1461073e578063d16ef09114610843578063e985e9c5146108fe578063f96172521461097a57610121565b8063563065ea146105345780636352211e146105a257806370a08231146106105780638ae04b3814610668578063a22cb465146106c057610121565b80632f8fe507116100f45780632f8fe507146102b55780633ac053f9146103635780634085caef1461045257806342842e0e1461049857806342966c681461050657610121565b806301ffc9a714610126578063081812fc1461018b578063095ea7b3146101f957806323b872dd14610247575b600080fd5b6101716004803603602081101561013c57600080fd5b8101908080357bffffffffffffffffffffffffffffffffffffffffffffffffffffffff19169060200190929190505050610a13565b604051808215151515815260200191505060405180910390f35b6101b7600480360360208110156101a157600080fd5b8101908080359060200190929190505050610a7a565b604051808273ffffffffffffffffffffffffffffffffffffffff1673ffffffffffffffffffffffffffffffffffffffff16815260200191505060405180910390f35b6102456004803603604081101561020f57600080fd5b81019080803573ffffffffffffffffffffffffffffffffffffffff16906020019092919080359060200190929190505050610b32565b005b6102b36004803603606081101561025d57600080fd5b81019080803573ffffffffffffffffffffffffffffffffffffffff169060200190929190803573ffffffffffffffffffffffffffffffffffffffff16906020019092919080359060200190929190505050610cb7565b005b6102e1600480360360208110156102cb57600080fd5b81019080803590602001909291905050506110f7565b6040518080602001838152602001828103825284818151815260200191508051906020019080838360005b8381101561032757808201518184015260208101905061030c565b50505050905090810190601f1680156103545780820380516001836020036101000a031916815260200191505b50935050505060405180910390f35b61043c6004803603604081101561037957600080fd5b810190808035906020019064010000000081111561039657600080fd5b8201836020820111156103a857600080fd5b803590602001918460018302840111640100000000831117156103ca57600080fd5b91908080601f016020809104026020016040519081016040528093929190818152602001838380828437600081840152601f19601f820116905080830192505050505050509192919290803573ffffffffffffffffffffffffffffffffffffffff1690602001909291905050506111c0565b6040518082815260200191505060405180910390f35b61047e6004803603602081101561046857600080fd5b8101908080359060200190929190505050611274565b604051808215151515815260200191505060405180910390f35b610504600480360360608110156104ae57600080fd5b81019080803573ffffffffffffffffffffffffffffffffffffffff169060200190929190803573ffffffffffffffffffffffffffffffffffffffff16906020019092919080359060200190929190505050611294565b005b6105326004803603602081101561051c57600080fd5b81019080803590602001909291905050506112b4565b005b6105606004803603602081101561054a57600080fd5b810190808035906020019092919050505061153a565b604051808273ffffffffffffffffffffffffffffffffffffffff1673ffffffffffffffffffffffffffffffffffffffff16815260200191505060405180910390f35b6105ce600480360360208110156105b857600080fd5b810190808035906020019092919050505061156d565b604051808273ffffffffffffffffffffffffffffffffffffffff1673ffffffffffffffffffffffffffffffffffffffff16815260200191505060405180910390f35b6106526004803603602081101561062657600080fd5b81019080803573ffffffffffffffffffffffffffffffffffffffff169060200190929190505050611652565b6040518082815260200191505060405180910390f35b6106aa6004803603602081101561067e57600080fd5b81019080803573ffffffffffffffffffffffffffffffffffffffff16906020019092919050505061169b565b6040518082815260200191505060405180910390f35b61070e600480360360408110156106d657600080fd5b81019080803573ffffffffffffffffffffffffffffffffffffffff1690602001909291908035151590602001909291905050506116b3565b005b61073c6004803603602081101561072657600080fd5b8101908080359060200190929190505050611856565b005b6108416004803603608081101561075457600080fd5b81019080803573ffffffffffffffffffffffffffffffffffffffff169060200190929190803573ffffffffffffffffffffffffffffffffffffffff16906020019092919080359060200190929190803590602001906401000000008111156107bb57600080fd5b8201836020820111156107cd57600080fd5b803590602001918460018302840111640100000000831117156107ef57600080fd5b91908080601f016020809104026020016040519081016040528093929190818152602001838380828437600081840152601f19601f8201169050808301925050505050505091929192905050506118ee565b005b6108fc6004803603602081101561085957600080fd5b810190808035906020019064010000000081111561087657600080fd5b82018360208201111561088857600080fd5b803590602001918460018302840111640100000000831117156108aa57600080fd5b91908080601f016020809104026020016040519081016040528093929190818152602001838380828437600081840152601f19601f820116905080830192505050505050509192919290505050611960565b005b6109606004803603604081101561091457600080fd5b81019080803573ffffffffffffffffffffffffffffffffffffffff169060200190929190803573ffffffffffffffffffffffffffffffffffffffff16906020019092919050505061197c565b604051808215151515815260200191505060405180910390f35b6109bc6004803603602081101561099057600080fd5b81019080803573ffffffffffffffffffffffffffffffffffffffff169060200190929190505050611a10565b6040518080602001828103825283818151815260200191508051906020019060200280838360005b838110156109ff5780820151818401526020810190506109e4565b505050509050019250505060405180910390f35b6000806000837bffffffffffffffffffffffffffffffffffffffffffffffffffffffff19167bffffffffffffffffffffffffffffffffffffffffffffffffffffffff1916815260200190815260200160002060009054906101000a900460ff169050919050565b6000610a8582611b3d565b610af7576040517f08c379a00000000000000000000000000000000000000000000000000000000081526004018080602001828103825260198152602001807f41766174686565657220646f6573206e6f742065786973742e0000000000000081525060200191505060405180910390fd5b6005600083815260200190815260200160002060009054906101000a900473ffffffffffffffffffffffffffffffffffffffff169050919050565b6002600082815260200190815260200160002060009054906101000a900473ffffffffffffffffffffffffffffffffffffffff1673ffffffffffffffffffffffffffffffffffffffff163373ffffffffffffffffffffffffffffffffffffffff1614610c06576040517f08c379a000000000000000000000000000000000000000000000000000000000815260040180806020018281038252601c8152602001807f4d7573742062652074686520417661746865656572206f776e65722e0000000081525060200191505060405180910390fd5b816005600083815260200190815260200160002060006101000a81548173ffffffffffffffffffffffffffffffffffffffff021916908373ffffffffffffffffffffffffffffffffffffffff160217905550808273ffffffffffffffffffffffffffffffffffffffff163373ffffffffffffffffffffffffffffffffffffffff167f8c5be1e5ebec7d5bd14f71427d1e84f3dd0314c0f7b2291e5b200ac8c7c3b92560405160405180910390a45050565b600073ffffffffffffffffffffffffffffffffffffffff168373ffffffffffffffffffffffffffffffffffffffff1614158015610d215750600073ffffffffffffffffffffffffffffffffffffffff168273ffffffffffffffffffffffffffffffffffffffff1614155b610d93576040517f08c379a00000000000000000000000000000000000000000000000000000000081526004018080602001828103825260108152602001807f496e76616c696420616464726573732e0000000000000000000000000000000081525060200191505060405180910390fd5b610d9c81611b3d565b610e0e576040517f08c379a00000000000000000000000000000000000000000000000000000000081526004018080602001828103825260198152602001807f41766174686565657220646f6573206e6f742065786973742e0000000000000081525060200191505060405180910390fd5b8173ffffffffffffffffffffffffffffffffffffffff168373ffffffffffffffffffffffffffffffffffffffff161415610e93576040517f08c379a00000000000000000000000000000000000000000000000000000000081526004018080602001828103825260248152602001806126956024913960400191505060405180910390fd5b610e9d3382611baf565b610f0f576040517f08c379a00000000000000000000000000000000000000000000000000000000081526004018080602001828103825260188152602001807f41646472657373206973206e6f7420617070726f7665642e000000000000000081525060200191505060405180910390fd5b610f626001600360008573ffffffffffffffffffffffffffffffffffffffff1673ffffffffffffffffffffffffffffffffffffffff16815260200190815260200160002054611c6f90919063ffffffff16565b600360008473ffffffffffffffffffffffffffffffffffffffff1673ffffffffffffffffffffffffffffffffffffffff16815260200190815260200160002081905550610ff86001600360008673ffffffffffffffffffffffffffffffffffffffff1673ffffffffffffffffffffffffffffffffffffffff16815260200190815260200160002054611cf790919063ffffffff16565b600360008573ffffffffffffffffffffffffffffffffffffffff1673ffffffffffffffffffffffffffffffffffffffff16815260200190815260200160002081905550816002600083815260200190815260200160002060006101000a81548173ffffffffffffffffffffffffffffffffffffffff021916908373ffffffffffffffffffffffffffffffffffffffff160217905550808273ffffffffffffffffffffffffffffffffffffffff168473ffffffffffffffffffffffffffffffffffffffff167fddf252ad1be2c89b69c2b068fc378daa952ba7f163c4a11628f55a4df523b3ef60405160405180910390a46110f28282611d41565b505050565b6001818154811061110457fe5b9060005260206000209060020201600091509050806000018054600181600116156101000203166002900480601f0160208091040260200160405190810160405280929190818152602001828054600181600116156101000203166002900480156111b05780601f10611185576101008083540402835291602001916111b0565b820191906000526020600020905b81548152906001019060200180831161119357829003601f168201915b5050505050908060010154905082565b6000808273ffffffffffffffffffffffffffffffffffffffff16846040516020018082805190602001908083835b6020831061121157805182526020820191506020810190506020830392506111ee565b6001836020036101000a0380198251168184511680821785525050505050509050019150506040516020818303038152906040528051906020012060001c019050611268601a800a82611f4f90919063ffffffff16565b90508091505092915050565b60046020528060005260406000206000915054906101000a900460ff1681565b6112af838383604051806020016040528060008152506118ee565b505050565b600073ffffffffffffffffffffffffffffffffffffffff163373ffffffffffffffffffffffffffffffffffffffff161415611357576040517f08c379a00000000000000000000000000000000000000000000000000000000081526004018080602001828103825260108152602001807f496e76616c696420616464726573732e0000000000000000000000000000000081525060200191505060405180910390fd5b61136081611b3d565b6113d2576040517f08c379a00000000000000000000000000000000000000000000000000000000081526004018080602001828103825260198152602001807f41766174686565657220646f6573206e6f742065786973742e0000000000000081525060200191505060405180910390fd5b6113dc3382611baf565b61144e576040517f08c379a00000000000000000000000000000000000000000000000000000000081526004018080602001828103825260188152602001807f41646472657373206973206e6f7420617070726f7665642e000000000000000081525060200191505060405180910390fd5b6114a16001600360003373ffffffffffffffffffffffffffffffffffffffff1673ffffffffffffffffffffffffffffffffffffffff16815260200190815260200160002054611cf790919063ffffffff16565b600360003373ffffffffffffffffffffffffffffffffffffffff1673ffffffffffffffffffffffffffffffffffffffff1681526020019081526020016000208190555060006002600083815260200190815260200160002060006101000a81548173ffffffffffffffffffffffffffffffffffffffff021916908373ffffffffffffffffffffffffffffffffffffffff16021790555050565b60026020528060005260406000206000915054906101000a900473ffffffffffffffffffffffffffffffffffffffff1681565b6000806002600084815260200190815260200160002060009054906101000a900473ffffffffffffffffffffffffffffffffffffffff169050600073ffffffffffffffffffffffffffffffffffffffff168173ffffffffffffffffffffffffffffffffffffffff161415611649576040517f08c379a00000000000000000000000000000000000000000000000000000000081526004018080602001828103825260158152602001807f496e76616c6964204176617468656565722049442e000000000000000000000081525060200191505060405180910390fd5b80915050919050565b6000600360008373ffffffffffffffffffffffffffffffffffffffff1673ffffffffffffffffffffffffffffffffffffffff168152602001908152602001600020549050919050565b60036020528060005260406000206000915090505481565b3373ffffffffffffffffffffffffffffffffffffffff168273ffffffffffffffffffffffffffffffffffffffff161415611755576040517f08c379a000000000000000000000000000000000000000000000000000000000815260040180806020018281038252601a8152602001807f43616e6e6f7420617070726f7665206f776e206164647265737300000000000081525060200191505060405180910390fd5b80600660003373ffffffffffffffffffffffffffffffffffffffff1673ffffffffffffffffffffffffffffffffffffffff16815260200190815260200160002060008473ffffffffffffffffffffffffffffffffffffffff1673ffffffffffffffffffffffffffffffffffffffff16815260200190815260200160002060006101000a81548160ff0219169083151502179055508173ffffffffffffffffffffffffffffffffffffffff163373ffffffffffffffffffffffffffffffffffffffff167f17307eab39ab6107e8899845ad3d59bd9653f200f220920489ca2b5937696c3183604051808215151515815260200191505060405180910390a35050565b6118603382611baf565b6118d2576040517f08c379a00000000000000000000000000000000000000000000000000000000081526004018080602001828103825260188152602001807f41646472657373206973206e6f7420617070726f7665642e000000000000000081525060200191505060405180910390fd5b60006118dd8261156d565b90506118ea813384610cb7565b5050565b6118f9848484610cb7565b61190584848484611f99565b61195a576040517f08c379a00000000000000000000000000000000000000000000000000000000081526004018080602001828103825260218152602001806126746021913960400191505060405180910390fd5b50505050565b600061196c82336111c0565b90506119788282612182565b5050565b6000600660008473ffffffffffffffffffffffffffffffffffffffff1673ffffffffffffffffffffffffffffffffffffffff16815260200190815260200160002060008373ffffffffffffffffffffffffffffffffffffffff1673ffffffffffffffffffffffffffffffffffffffff16815260200190815260200160002060009054906101000a900460ff16905092915050565b606080600360008473ffffffffffffffffffffffffffffffffffffffff1673ffffffffffffffffffffffffffffffffffffffff16815260200190815260200160002054604051908082528060200260200182016040528015611a815781602001602082028038833980820191505090505b509050600080905060008090505b600180549050811015611b32578473ffffffffffffffffffffffffffffffffffffffff166002600083815260200190815260200160002060009054906101000a900473ffffffffffffffffffffffffffffffffffffffff1673ffffffffffffffffffffffffffffffffffffffff161415611b255780838381518110611b1057fe5b60200260200101818152505081806001019250505b8080600101915050611a8f565b508192505050919050565b6000806002600084815260200190815260200160002060009054906101000a900473ffffffffffffffffffffffffffffffffffffffff169050600073ffffffffffffffffffffffffffffffffffffffff168173ffffffffffffffffffffffffffffffffffffffff161415915050919050565b6000806002600084815260200190815260200160002060009054906101000a900473ffffffffffffffffffffffffffffffffffffffff1690508073ffffffffffffffffffffffffffffffffffffffff168473ffffffffffffffffffffffffffffffffffffffff161480611c5557508373ffffffffffffffffffffffffffffffffffffffff16611c3d84610a7a565b73ffffffffffffffffffffffffffffffffffffffff16145b80611c665750611c65818561197c565b5b91505092915050565b600080828401905083811015611ced576040517f08c379a000000000000000000000000000000000000000000000000000000000815260040180806020018281038252601b8152602001807f536166654d6174683a206164646974696f6e206f766572666c6f77000000000081525060200191505060405180910390fd5b8091505092915050565b6000611d3983836040518060400160405280601e81526020017f536166654d6174683a207375627472616374696f6e206f766572666c6f770000815250612402565b905092915050565b8173ffffffffffffffffffffffffffffffffffffffff166002600083815260200190815260200160002060009054906101000a900473ffffffffffffffffffffffffffffffffffffffff1673ffffffffffffffffffffffffffffffffffffffff1614611e15576040517f08c379a00000000000000000000000000000000000000000000000000000000081526004018080602001828103825260188152602001807f4d75737420626520617661746865656572206f776e65722e000000000000000081525060200191505060405180910390fd5b611e1e81611b3d565b611e90576040517f08c379a00000000000000000000000000000000000000000000000000000000081526004018080602001828103825260198152602001807f41766174686565657220646f6573206e6f742065786973742e0000000000000081525060200191505060405180910390fd5b600073ffffffffffffffffffffffffffffffffffffffff166005600083815260200190815260200160002060009054906101000a900473ffffffffffffffffffffffffffffffffffffffff1673ffffffffffffffffffffffffffffffffffffffff1614611f4b5760006005600083815260200190815260200160002060006101000a81548173ffffffffffffffffffffffffffffffffffffffff021916908373ffffffffffffffffffffffffffffffffffffffff1602179055505b5050565b6000611f9183836040518060400160405280601881526020017f536166654d6174683a206d6f64756c6f206279207a65726f00000000000000008152506124c2565b905092915050565b6000611fba8473ffffffffffffffffffffffffffffffffffffffff16612583565b611fc7576001905061217a565b60008473ffffffffffffffffffffffffffffffffffffffff1663150b7a02338887876040518563ffffffff1660e01b8152600401808573ffffffffffffffffffffffffffffffffffffffff1673ffffffffffffffffffffffffffffffffffffffff1681526020018473ffffffffffffffffffffffffffffffffffffffff1673ffffffffffffffffffffffffffffffffffffffff16815260200183815260200180602001828103825283818151815260200191508051906020019080838360005b838110156120a2578082015181840152602081019050612087565b50505050905090810190601f1680156120cf5780820380516001836020036101000a031916815260200191505b5095505050505050602060405180830381600087803b1580156120f157600080fd5b505af1158015612105573d6000803e3d6000fd5b505050506040513d602081101561211b57600080fd5b8101908080519060200190929190505050905063150b7a0260e01b7bffffffffffffffffffffffffffffffffffffffffffffffffffffffff1916817bffffffffffffffffffffffffffffffffffffffffffffffffffffffff1916149150505b949350505050565b806004600082815260200190815260200160002060009054906101000a900460ff16156121fa576040517f08c379a00000000000000000000000000000000000000000000000000000000081526004018080602001828103825260278152602001806126b96027913960400191505060405180910390fd5b6001604051806040016040528085815260200184815250908060018154018082558091505060019003906000526020600020906002020160009091909190915060008201518160000190805190602001906122569291906125ce565b50602082015181600101555050600061227d60018080549050611cf790919063ffffffff16565b905060016004600085815260200190815260200160002060006101000a81548160ff021916908315150217905550600073ffffffffffffffffffffffffffffffffffffffff166002600083815260200190815260200160002060009054906101000a900473ffffffffffffffffffffffffffffffffffffffff1673ffffffffffffffffffffffffffffffffffffffff161461231457fe5b336002600083815260200190815260200160002060006101000a81548173ffffffffffffffffffffffffffffffffffffffff021916908373ffffffffffffffffffffffffffffffffffffffff1602179055506123b96001600360003373ffffffffffffffffffffffffffffffffffffffff1673ffffffffffffffffffffffffffffffffffffffff16815260200190815260200160002054611c6f90919063ffffffff16565b600360003373ffffffffffffffffffffffffffffffffffffffff1673ffffffffffffffffffffffffffffffffffffffff1681526020019081526020016000208190555050505050565b60008383111582906124af576040517f08c379a00000000000000000000000000000000000000000000000000000000081526004018080602001828103825283818151815260200191508051906020019080838360005b83811015612474578082015181840152602081019050612459565b50505050905090810190601f1680156124a15780820380516001836020036101000a031916815260200191505b509250505060405180910390fd5b5060008385039050809150509392505050565b600080831415829061256f576040517f08c379a00000000000000000000000000000000000000000000000000000000081526004018080602001828103825283818151815260200191508051906020019080838360005b83811015612534578082015181840152602081019050612519565b50505050905090810190601f1680156125615780820380516001836020036101000a031916815260200191505b509250505060405180910390fd5b5082848161257957fe5b0690509392505050565b60008060007fc5d2460186f7233c927e7db2dcc703c0e500b653ca82273b7bfad8045d85a47060001b9050833f91508082141580156125c557506000801b8214155b92505050919050565b828054600181600116156101000203166002900490600052602060002090601f016020900481019282601f1061260f57805160ff191683800117855561263d565b8280016001018555821561263d579182015b8281111561263c578251825591602001919060010190612621565b5b50905061264a919061264e565b5090565b61267091905b8082111561266c576000816000905550600101612654565b5090565b9056fe4d75737420696d706c6d656d656e74206f6e45524337323152656365697665642e43616e6e6f74207472616e7366657220746f207468652073616d6520616464726573732e4176617468656565722077697468207375636820646e6120616c7265616479206578697374732ea2646970667358221220168315a66c4ce8bc58e5cb0c13af720a2ced5d5a9e26bae369573880171cd98764736f6c63430006020033",
  "source": "// SPDX-License-Identifier: MIT\npragma solidity ^0.6.2;\n\n// Imports symbols from other files into the current contract.\n// In this case, a series of helper contracts from OpenZeppelin.\n// Learn more: https://solidity.readthedocs.io/en/v0.6.2/layout-of-source-files.html#importing-other-source-files\n\n// IERC721 is the ERC721 interface that we'll use to make Avatheeer ERC721 compliant\n// More about ERC721: https://eips.ethereum.org/EIPS/eip-721\nimport \"@openzeppelin/contracts/token/ERC721/IERC721.sol\";\n// IERC721Receiver must be implemented to accept safe transfers.\n// It is included on the ERC721 standard\nimport \"@openzeppelin/contracts/token/ERC721/IERC721Receiver.sol\";\n// ERC165 is used to declare interface support for IERC721\n// More about ERC165: https://eips.ethereum.org/EIPS/eip-165\nimport \"@openzeppelin/contracts/introspection/ERC165.sol\";\n// SafeMath will be used for every math operation\nimport \"@openzeppelin/contracts/math/SafeMath.sol\";\n// Address will provide functions such as .isContract verification\nimport \"@openzeppelin/contracts/utils/Address.sol\";\n\n// The `is` keyword is used to inherit functions and keywords from external contracts.\n// In this case, `Avatheeer` inherits from the `IERC721` and `ERC165` contracts.\n// Learn more: https://solidity.readthedocs.io/en/v0.6.2/contracts.html#inheritance\ncontract Avatheeers is IERC721, ERC165 {\n    // Uses OpenZeppelin's SafeMath library to perform arithmetic operations safely.\n    // Learn more: https://docs.openzeppelin.com/contracts/3.x/api/math#SafeMath\n    using SafeMath for uint256;\n    // Use OpenZeppelin's Address library to validate whether an address is\n    // is a contract or not.\n    // Learn more: https://docs.openzeppelin.com/contracts/3.x/api/utils#Address\n    using Address for address;\n\n    // Constant state variables in Solidity are similar to other languages\n    // but you must assign from an expression which is constant at compile time.\n    // Learn more: https://solidity.readthedocs.io/en/v0.6.2/contracts.html#constant-state-variables\n    uint256 constant dnaDigits = 26;\n    uint256 constant dnaModulus = 26**dnaDigits;\n\n    // ERC165 identifier for the ERC721 interface got from\n    // bytes4(keccak256(\"onERC721Received(address,address,uint256,bytes)\"))\n    bytes4 private constant _ERC721_RECEIVED = 0x150b7a02;\n\n    // Struct types let you define your own type\n    // Learn more: https://solidity.readthedocs.io/en/v0.6.2/types.html#structs\n    struct Avatheeer {\n        string name;\n        uint256 dna;\n    }\n\n    // Creates an empty array of Avatheeer structs\n    Avatheeer[] public avatheeers;\n\n    // Mapping from id of Avatheeer to its owner's address\n    mapping(uint256 => address) public avatheeerToOwner;\n\n    // Mapping from owner's address to number of owned token\n    mapping(address => uint256) public ownerAvatheeerCount;\n\n    // Mapping to validate that dna is not already taken\n    mapping(uint256 => bool) public dnaAvatheeerExists;\n\n    // Mapping from token ID to approved address\n    mapping(uint256 => address) avatheeerApprovals;\n\n    // You can nest mappings, this example maps owner to operator approvals\n    mapping(address => mapping(address => bool)) private operatorApprovals;\n\n    // Check if Avatheeer is unique and doesn't exist yet\n    modifier isUnique(uint256 _dna) {\n        require(\n            !dnaAvatheeerExists[_dna],\n            \"Avatheeer with such dna already exists.\"\n        );\n        _;\n    }\n\n    // Creates a random Avatheeer from string (name)\n    function createRandomAvatheeer(string memory _name) public {\n        uint256 randDna = generateRandomDna(_name, msg.sender);\n        _createAvatheeer(_name, randDna);\n    }\n\n    // Generates random DNA from string (name) and address of the owner (creator)\n    function generateRandomDna(string memory _str, address _owner)\n        public\n        pure\n        returns (\n            // Functions marked as `pure` promise not to read from or modify the state\n            // Learn more: https://solidity.readthedocs.io/en/v0.6.2/contracts.html#pure-functions\n            uint256\n        )\n    {\n        // Generates random uint from string (name) + address (owner)\n        uint256 rand = uint256(keccak256(abi.encodePacked(_str))) +\n            uint256(_owner);\n        rand = rand.mod(dnaModulus);\n        return rand;\n    }\n\n    // Internal function to create a random Avatheeer from string (name) and DNA\n    function _createAvatheeer(string memory _name, uint256 _dna)\n        internal\n        // The `internal` keyword means this function is only visible\n        // within this contract and contracts that derive this contract\n        // Learn more: https://solidity.readthedocs.io/en/v0.6.2/contracts.html#visibility-and-getters\n        // `isUnique` is a function modifier that checks if the avatheeer already exists\n        // Learn more: https://solidity.readthedocs.io/en/v0.6.2/structure-of-a-contract.html#function-modifiers\n        isUnique(_dna)\n    {\n        // Adds Avatheeer to array of Avatheeers and get id\n        avatheeers.push(Avatheeer(_name, _dna));\n        uint256 id = avatheeers.length.sub(1);\n\n        // Mark as existent avatheeer name and dna\n        dnaAvatheeerExists[_dna] = true;\n\n        // Checks that Avatheeer owner is the same as current user\n        // Learn more: https://solidity.readthedocs.io/en/v0.6.2/control-structures.html#error-handling-assert-require-revert-and-exceptions\n        assert(avatheeerToOwner[id] == address(0));\n\n        // Maps the Avatheeer to the owner\n        avatheeerToOwner[id] = msg.sender;\n        ownerAvatheeerCount[msg.sender] = ownerAvatheeerCount[msg.sender].add(\n            1\n        );\n    }\n\n    // Returns array of Avatheeers found by owner\n    function getAvatheeersByOwner(address _owner)\n        public\n        view\n        returns (\n            // Functions marked as `view` promise not to modify state\n            // Learn more: https://solidity.readthedocs.io/en/v0.6.2/contracts.html#view-functions\n            uint256[] memory\n        )\n    {\n        // Uses the `memory` storage location to store values only for the\n        // lifecycle of this function call.\n        // Learn more: https://solidity.readthedocs.io/en/v0.6.2/introduction-to-smart-contracts.html#storage-memory-and-the-stack\n        uint256[] memory result = new uint256[](ownerAvatheeerCount[_owner]);\n        uint256 counter = 0;\n        for (uint256 i = 0; i < avatheeers.length; i++) {\n            if (avatheeerToOwner[i] == _owner) {\n                result[counter] = i;\n                counter++;\n            }\n        }\n        return result;\n    }\n\n    // Returns count of Avatheeers by address\n    function balanceOf(address _owner)\n        public\n        override\n        view\n        returns (uint256 _balance)\n    {\n        return ownerAvatheeerCount[_owner];\n    }\n\n    // Returns owner of the Avatheeer found by id\n    function ownerOf(uint256 _avatheeerId)\n        public\n        override\n        view\n        returns (address _owner)\n    {\n        address owner = avatheeerToOwner[_avatheeerId];\n        require(owner != address(0), \"Invalid Avatheeer ID.\");\n        return owner;\n    }\n\n    /**\n     * Safely transfers the ownership of a given token ID to another address\n     * If the target address is a contract, it must implement `onERC721Received`,\n     * which is called upon a safe transfer, and return the magic value\n     * `bytes4(keccak256(\"onERC721Received(address,address,uint256,bytes)\"))`;\n     * otherwise, the transfer is reverted.\n     */\n    function safeTransferFrom(\n        address from,\n        address to,\n        uint256 avatheeerId\n    ) public override {\n        // solium-disable-next-line arg-overflow\n        safeTransferFrom(from, to, avatheeerId, \"\");\n    }\n\n    // Transfers Avatheeer and ownership to other address\n    function transferFrom(\n        address _from,\n        address _to,\n        uint256 _avatheeerId\n    ) public override {\n        require(_from != address(0) && _to != address(0), \"Invalid address.\");\n        require(_exists(_avatheeerId), \"Avatheeer does not exist.\");\n        require(_from != _to, \"Cannot transfer to the same address.\");\n        require(\n            _isApprovedOrOwner(msg.sender, _avatheeerId),\n            \"Address is not approved.\"\n        );\n\n        ownerAvatheeerCount[_to] = ownerAvatheeerCount[_to].add(1);\n        ownerAvatheeerCount[_from] = ownerAvatheeerCount[_from].sub(1);\n        avatheeerToOwner[_avatheeerId] = _to;\n\n        // Emits event defined in the imported IERC721 contract\n        emit Transfer(_from, _to, _avatheeerId);\n        _clearApproval(_to, _avatheeerId);\n    }\n\n    // Checks if Avatheeer exists\n    function _exists(uint256 avatheeerId) internal view returns (bool) {\n        address owner = avatheeerToOwner[avatheeerId];\n        return owner != address(0);\n    }\n\n    // Checks if address is owner or is approved to transfer Avatheeer\n    function _isApprovedOrOwner(address spender, uint256 avatheeerId)\n        internal\n        view\n        returns (bool)\n    {\n        address owner = avatheeerToOwner[avatheeerId];\n        // Disable solium check because of\n        // https://github.com/duaraghav8/Solium/issues/175\n        // solium-disable-next-line operator-whitespace\n        return (spender == owner ||\n            getApproved(avatheeerId) == spender ||\n            isApprovedForAll(owner, spender));\n    }\n\n    /**\n     * Private function to clear current approval of a given token ID\n     * Reverts if the given address is not indeed the owner of the token\n     */\n    function _clearApproval(address owner, uint256 _avatheeerId) private {\n        require(\n            avatheeerToOwner[_avatheeerId] == owner,\n            \"Must be avatheeer owner.\"\n        );\n        require(_exists(_avatheeerId), \"Avatheeer does not exist.\");\n        if (avatheeerApprovals[_avatheeerId] != address(0)) {\n            avatheeerApprovals[_avatheeerId] = address(0);\n        }\n    }\n\n    // Approves other address to transfer ownership of Avatheeer\n    function approve(address _to, uint256 _avatheeerId) public override {\n        require(\n            msg.sender == avatheeerToOwner[_avatheeerId],\n            \"Must be the Avatheeer owner.\"\n        );\n        avatheeerApprovals[_avatheeerId] = _to;\n        emit Approval(msg.sender, _to, _avatheeerId);\n    }\n\n    // Returns approved address for specific Avatheeer\n    function getApproved(uint256 _avatheeerId)\n        public\n        override\n        view\n        returns (address operator)\n    {\n        require(_exists(_avatheeerId), \"Avatheeer does not exist.\");\n        return avatheeerApprovals[_avatheeerId];\n    }\n\n    /*\n     * Sets or unsets the approval of a given operator\n     * An operator is allowed to transfer all tokens of the sender on their behalf\n     */\n    function setApprovalForAll(address to, bool approved) public override {\n        require(to != msg.sender, \"Cannot approve own address\");\n        operatorApprovals[msg.sender][to] = approved;\n        emit ApprovalForAll(msg.sender, to, approved);\n    }\n\n    // Tells whether an operator is approved by a given owner\n    function isApprovedForAll(address owner, address operator)\n        public\n        override\n        view\n        returns (bool)\n    {\n        return operatorApprovals[owner][operator];\n    }\n\n    /**\n     * Safely transfers the ownership of a given token ID to another address\n     * If the target address is a contract, it must implement `onERC721Received`,\n     * which is called upon a safe transfer, and return the magic value\n     * `bytes4(keccak256(\"onERC721Received(address,address,uint256,bytes)\"))`;\n     * otherwise, the transfer is reverted.\n     */\n    function safeTransferFrom(\n        address from,\n        address to,\n        uint256 avatheeerId,\n        bytes memory _data\n    ) public override {\n        transferFrom(from, to, avatheeerId);\n        require(\n            _checkOnERC721Received(from, to, avatheeerId, _data),\n            \"Must implmement onERC721Received.\"\n        );\n    }\n\n    /**\n     * Internal function to invoke `onERC721Received` on a target address\n     * The call is not executed if the target address is not a contract\n     */\n    function _checkOnERC721Received(\n        address from,\n        address to,\n        uint256 avatheeerId,\n        bytes memory _data\n    ) internal returns (bool) {\n        if (!to.isContract()) {\n            return true;\n        }\n\n        bytes4 retval = IERC721Receiver(to).onERC721Received(\n            msg.sender,\n            from,\n            avatheeerId,\n            _data\n        );\n        return (retval == _ERC721_RECEIVED);\n    }\n\n    // Burns a Avatheeer - destroys Token completely\n    // The `external` function modifier means this function is\n    // part of the contract interface and other contracts can call it\n    function burn(uint256 _avatheeerId) external {\n        require(msg.sender != address(0), \"Invalid address.\");\n        require(_exists(_avatheeerId), \"Avatheeer does not exist.\");\n        require(\n            _isApprovedOrOwner(msg.sender, _avatheeerId),\n            \"Address is not approved.\"\n        );\n\n        ownerAvatheeerCount[msg.sender] = ownerAvatheeerCount[msg.sender].sub(\n            1\n        );\n        avatheeerToOwner[_avatheeerId] = address(0);\n    }\n\n    // Takes ownership of Avatheeer - only for approved users\n    function takeOwnership(uint256 _avatheeerId) public {\n        require(\n            _isApprovedOrOwner(msg.sender, _avatheeerId),\n            \"Address is not approved.\"\n        );\n        address owner = ownerOf(_avatheeerId);\n        transferFrom(owner, msg.sender, _avatheeerId);\n    }\n}\n",
  "sourcePath": "/Users/ernestognw/Documents/Blockdemy/workshops/avather.io/contracts/Avatheeers.sol",
  "compiler": {
    "name": "solc",
    "version": "0.6.2+commit.bacdbe57.Emscripten.clang"
  },
  "schemaVersion": "3.2.4",
  "updatedAt": "2020-09-06T01:02:02.788Z",
  "networkType": "ethereum",
  "devdoc": {
    "methods": {
      "supportsInterface(bytes4)": {
        "details": "See {IERC165-supportsInterface}.     * Time complexity O(1), guaranteed to always use less than 30 000 gas."
      }
    }
  },
  "userdoc": {
    "methods": {
      "safeTransferFrom(address,address,uint256)": {
        "notice": "Safely transfers the ownership of a given token ID to another address If the target address is a contract, it must implement `onERC721Received`, which is called upon a safe transfer, and return the magic value `bytes4(keccak256(\"onERC721Received(address,address,uint256,bytes)\"))`; otherwise, the transfer is reverted."
      },
      "safeTransferFrom(address,address,uint256,bytes)": {
        "notice": "Safely transfers the ownership of a given token ID to another address If the target address is a contract, it must implement `onERC721Received`, which is called upon a safe transfer, and return the magic value `bytes4(keccak256(\"onERC721Received(address,address,uint256,bytes)\"))`; otherwise, the transfer is reverted."
      }
    }
  }
}